{
  "contractName": "PlotToken",
  "abi": [
    {
      "inputs": [],
      "stateMutability": "nonpayable",
      "type": "constructor"
    },
    {
      "anonymous": false,
      "inputs": [
        {
          "indexed": true,
          "internalType": "address",
          "name": "owner",
          "type": "address"
        },
        {
          "indexed": true,
          "internalType": "address",
          "name": "approved",
          "type": "address"
        },
        {
          "indexed": true,
          "internalType": "uint256",
          "name": "tokenId",
          "type": "uint256"
        }
      ],
      "name": "Approval",
      "type": "event"
    },
    {
      "anonymous": false,
      "inputs": [
        {
          "indexed": true,
          "internalType": "address",
          "name": "owner",
          "type": "address"
        },
        {
          "indexed": true,
          "internalType": "address",
          "name": "operator",
          "type": "address"
        },
        {
          "indexed": false,
          "internalType": "bool",
          "name": "approved",
          "type": "bool"
        }
      ],
      "name": "ApprovalForAll",
      "type": "event"
    },
    {
      "anonymous": false,
      "inputs": [
        {
          "indexed": true,
          "internalType": "address",
          "name": "previousOwner",
          "type": "address"
        },
        {
          "indexed": true,
          "internalType": "address",
          "name": "newOwner",
          "type": "address"
        }
      ],
      "name": "OwnershipTransferred",
      "type": "event"
    },
    {
      "anonymous": false,
      "inputs": [
        {
          "indexed": true,
          "internalType": "address",
          "name": "from",
          "type": "address"
        },
        {
          "indexed": true,
          "internalType": "address",
          "name": "to",
          "type": "address"
        },
        {
          "indexed": true,
          "internalType": "uint256",
          "name": "tokenId",
          "type": "uint256"
        }
      ],
      "name": "Transfer",
      "type": "event"
    },
    {
      "inputs": [
        {
          "internalType": "address",
          "name": "to",
          "type": "address"
        },
        {
          "internalType": "uint256",
          "name": "tokenId",
          "type": "uint256"
        }
      ],
      "name": "approve",
      "outputs": [],
      "stateMutability": "nonpayable",
      "type": "function"
    },
    {
      "inputs": [
        {
          "internalType": "address",
          "name": "owner",
          "type": "address"
        }
      ],
      "name": "balanceOf",
      "outputs": [
        {
          "internalType": "uint256",
          "name": "",
          "type": "uint256"
        }
      ],
      "stateMutability": "view",
      "type": "function",
      "constant": true
    },
    {
      "inputs": [
        {
          "internalType": "uint256",
          "name": "tokenId",
          "type": "uint256"
        }
      ],
      "name": "getApproved",
      "outputs": [
        {
          "internalType": "address",
          "name": "",
          "type": "address"
        }
      ],
      "stateMutability": "view",
      "type": "function",
      "constant": true
    },
    {
      "inputs": [
        {
          "internalType": "address",
          "name": "owner",
          "type": "address"
        },
        {
          "internalType": "address",
          "name": "operator",
          "type": "address"
        }
      ],
      "name": "isApprovedForAll",
      "outputs": [
        {
          "internalType": "bool",
          "name": "",
          "type": "bool"
        }
      ],
      "stateMutability": "view",
      "type": "function",
      "constant": true
    },
    {
      "inputs": [
        {
          "internalType": "uint256",
          "name": "",
          "type": "uint256"
        }
      ],
      "name": "mapingPrice",
      "outputs": [
        {
          "internalType": "uint256",
          "name": "priceInWei",
          "type": "uint256"
        },
        {
          "internalType": "uint256",
          "name": "paidWei",
          "type": "uint256"
        }
      ],
      "stateMutability": "view",
      "type": "function",
      "constant": true
    },
    {
      "inputs": [],
      "name": "name",
      "outputs": [
        {
          "internalType": "string",
          "name": "",
          "type": "string"
        }
      ],
      "stateMutability": "view",
      "type": "function",
      "constant": true
    },
    {
      "inputs": [],
      "name": "owner",
      "outputs": [
        {
          "internalType": "address",
          "name": "",
          "type": "address"
        }
      ],
      "stateMutability": "view",
      "type": "function",
      "constant": true
    },
    {
      "inputs": [
        {
          "internalType": "uint256",
          "name": "tokenId",
          "type": "uint256"
        }
      ],
      "name": "ownerOf",
      "outputs": [
        {
          "internalType": "address",
          "name": "",
          "type": "address"
        }
      ],
      "stateMutability": "view",
      "type": "function",
      "constant": true
    },
    {
      "inputs": [],
      "name": "renounceOwnership",
      "outputs": [],
      "stateMutability": "nonpayable",
      "type": "function"
    },
    {
      "inputs": [
        {
          "internalType": "address",
          "name": "from",
          "type": "address"
        },
        {
          "internalType": "address",
          "name": "to",
          "type": "address"
        },
        {
          "internalType": "uint256",
          "name": "tokenId",
          "type": "uint256"
        }
      ],
      "name": "safeTransferFrom",
      "outputs": [],
      "stateMutability": "nonpayable",
      "type": "function"
    },
    {
      "inputs": [
        {
          "internalType": "address",
          "name": "from",
          "type": "address"
        },
        {
          "internalType": "address",
          "name": "to",
          "type": "address"
        },
        {
          "internalType": "uint256",
          "name": "tokenId",
          "type": "uint256"
        },
        {
          "internalType": "bytes",
          "name": "_data",
          "type": "bytes"
        }
      ],
      "name": "safeTransferFrom",
      "outputs": [],
      "stateMutability": "nonpayable",
      "type": "function"
    },
    {
      "inputs": [
        {
          "internalType": "address",
          "name": "operator",
          "type": "address"
        },
        {
          "internalType": "bool",
          "name": "approved",
          "type": "bool"
        }
      ],
      "name": "setApprovalForAll",
      "outputs": [],
      "stateMutability": "nonpayable",
      "type": "function"
    },
    {
      "inputs": [],
      "name": "symbol",
      "outputs": [
        {
          "internalType": "string",
          "name": "",
          "type": "string"
        }
      ],
      "stateMutability": "view",
      "type": "function",
      "constant": true
    },
    {
      "inputs": [
        {
          "internalType": "uint256",
          "name": "index",
          "type": "uint256"
        }
      ],
      "name": "tokenByIndex",
      "outputs": [
        {
          "internalType": "uint256",
          "name": "",
          "type": "uint256"
        }
      ],
      "stateMutability": "view",
      "type": "function",
      "constant": true
    },
    {
      "inputs": [
        {
          "internalType": "address",
          "name": "owner",
          "type": "address"
        },
        {
          "internalType": "uint256",
          "name": "index",
          "type": "uint256"
        }
      ],
      "name": "tokenOfOwnerByIndex",
      "outputs": [
        {
          "internalType": "uint256",
          "name": "",
          "type": "uint256"
        }
      ],
      "stateMutability": "view",
      "type": "function",
      "constant": true
    },
    {
      "inputs": [
        {
          "internalType": "uint256",
          "name": "",
          "type": "uint256"
        }
      ],
      "name": "tokenPrice",
      "outputs": [
        {
          "internalType": "uint256",
          "name": "",
          "type": "uint256"
        }
      ],
      "stateMutability": "view",
      "type": "function",
      "constant": true
    },
    {
      "inputs": [
        {
          "internalType": "uint256",
          "name": "tokenId",
          "type": "uint256"
        }
      ],
      "name": "tokenURI",
      "outputs": [
        {
          "internalType": "string",
          "name": "",
          "type": "string"
        }
      ],
      "stateMutability": "view",
      "type": "function",
      "constant": true
    },
    {
      "inputs": [],
      "name": "totalSupply",
      "outputs": [
        {
          "internalType": "uint256",
          "name": "",
          "type": "uint256"
        }
      ],
      "stateMutability": "view",
      "type": "function",
      "constant": true
    },
    {
      "inputs": [
        {
          "internalType": "address",
          "name": "from",
          "type": "address"
        },
        {
          "internalType": "address",
          "name": "to",
          "type": "address"
        },
        {
          "internalType": "uint256",
          "name": "tokenId",
          "type": "uint256"
        }
      ],
      "name": "transferFrom",
      "outputs": [],
      "stateMutability": "nonpayable",
      "type": "function"
    },
    {
      "inputs": [
        {
          "internalType": "address",
          "name": "newOwner",
          "type": "address"
        }
      ],
      "name": "transferOwnership",
      "outputs": [],
      "stateMutability": "nonpayable",
      "type": "function"
    },
    {
      "inputs": [
        {
          "internalType": "address",
          "name": "fromBuyer",
          "type": "address"
        },
        {
          "internalType": "address",
          "name": "toSeller",
          "type": "address"
        },
        {
          "internalType": "uint256",
          "name": "_tokenId",
          "type": "uint256"
        }
      ],
      "name": "buyPlotToken",
      "outputs": [],
      "stateMutability": "payable",
      "type": "function",
      "payable": true
    },
    {
      "inputs": [
        {
          "internalType": "address",
          "name": "to",
          "type": "address"
        },
        {
          "internalType": "uint256",
          "name": "_priceInWei",
          "type": "uint256"
        }
      ],
      "name": "mintPlotToken",
      "outputs": [],
      "stateMutability": "nonpayable",
      "type": "function"
    },
    {
      "inputs": [
        {
          "internalType": "bytes4",
          "name": "interfaceId",
          "type": "bytes4"
        }
      ],
      "name": "supportsInterface",
      "outputs": [
        {
          "internalType": "bool",
          "name": "",
          "type": "bool"
        }
      ],
      "stateMutability": "view",
      "type": "function",
      "constant": true
    }
  ],
  "bytecode": "0x60806040523480156200001157600080fd5b506040518060400160405280600981526020017f506c6f74546f6b656e00000000000000000000000000000000000000000000008152506040518060400160405280600381526020017f504c4f0000000000000000000000000000000000000000000000000000000000815250816000908051906020019062000096929190620001a6565b508060019080519060200190620000af929190620001a6565b505050620000d2620000c6620000d860201b60201c565b620000e060201b60201c565b620002bb565b600033905090565b6000600a60009054906101000a900473ffffffffffffffffffffffffffffffffffffffff16905081600a60006101000a81548173ffffffffffffffffffffffffffffffffffffffff021916908373ffffffffffffffffffffffffffffffffffffffff1602179055508173ffffffffffffffffffffffffffffffffffffffff168173ffffffffffffffffffffffffffffffffffffffff167f8be0079c531659141344cd1fd0a4f28419497f9722a3daafe3b4186f6b6457e060405160405180910390a35050565b828054620001b49062000256565b90600052602060002090601f016020900481019282620001d8576000855562000224565b82601f10620001f357805160ff191683800117855562000224565b8280016001018555821562000224579182015b828111156200022357825182559160200191906001019062000206565b5b50905062000233919062000237565b5090565b5b808211156200025257600081600090555060010162000238565b5090565b600060028204905060018216806200026f57607f821691505b602082108114156200028657620002856200028c565b5b50919050565b7f4e487b7100000000000000000000000000000000000000000000000000000000600052602260045260246000fd5b6137b780620002cb6000396000f3fe6080604052600436106101405760003560e01c806370a08231116100b6578063a22cb4651161006f578063a22cb46514610474578063b88d4fde1461049d578063c87b56dd146104c6578063d4ddce8a14610503578063e985e9c514610540578063f2fde38b1461057d57610140565b806370a0823114610363578063715018a6146103a05780637dd0010f146103b757806383ca7c38146103f55780638da5cb5b1461041e57806395d89b411461044957610140565b806318160ddd1161010857806318160ddd1461022f57806323b872dd1461025a5780632f745c591461028357806342842e0e146102c05780634f6ccce7146102e95780636352211e1461032657610140565b806301ffc9a71461014557806306fdde0314610182578063081812fc146101ad578063095ea7b3146101ea57806312b1ae3814610213575b600080fd5b34801561015157600080fd5b5061016c60048036038101906101679190612726565b6105a6565b6040516101799190613076565b60405180910390f35b34801561018e57600080fd5b506101976105b8565b6040516101a49190613091565b60405180910390f35b3480156101b957600080fd5b506101d460048036038101906101cf9190612778565b61064a565b6040516101e1919061300f565b60405180910390f35b3480156101f657600080fd5b50610211600480360381019061020c91906126ea565b6106cf565b005b61022d600480360381019061022891906125e4565b6107e7565b005b34801561023b57600080fd5b506102446108ca565b6040516102519190613353565b60405180910390f35b34801561026657600080fd5b50610281600480360381019061027c91906125e4565b6108d7565b005b34801561028f57600080fd5b506102aa60048036038101906102a591906126ea565b610937565b6040516102b79190613353565b60405180910390f35b3480156102cc57600080fd5b506102e760048036038101906102e291906125e4565b6109dc565b005b3480156102f557600080fd5b50610310600480360381019061030b9190612778565b6109fc565b60405161031d9190613353565b60405180910390f35b34801561033257600080fd5b5061034d60048036038101906103489190612778565b610a93565b60405161035a919061300f565b60405180910390f35b34801561036f57600080fd5b5061038a6004803603810190610385919061257f565b610b45565b6040516103979190613353565b60405180910390f35b3480156103ac57600080fd5b506103b5610bfd565b005b3480156103c357600080fd5b506103de60048036038101906103d99190612778565b610c85565b6040516103ec92919061336e565b60405180910390f35b34801561040157600080fd5b5061041c600480360381019061041791906126ea565b610ca9565b005b34801561042a57600080fd5b50610433610d0c565b604051610440919061300f565b60405180910390f35b34801561045557600080fd5b5061045e610d36565b60405161046b9190613091565b60405180910390f35b34801561048057600080fd5b5061049b600480360381019061049691906126ae565b610dc8565b005b3480156104a957600080fd5b506104c460048036038101906104bf9190612633565b610dde565b005b3480156104d257600080fd5b506104ed60048036038101906104e89190612778565b610e40565b6040516104fa9190613091565b60405180910390f35b34801561050f57600080fd5b5061052a60048036038101906105259190612778565b610ee7565b6040516105379190613353565b60405180910390f35b34801561054c57600080fd5b50610567600480360381019061056291906125a8565b610eff565b6040516105749190613076565b60405180910390f35b34801561058957600080fd5b506105a4600480360381019061059f919061257f565b610f93565b005b60006105b18261108b565b9050919050565b6060600080546105c7906135ac565b80601f01602080910402602001604051908101604052809291908181526020018280546105f3906135ac565b80156106405780601f1061061557610100808354040283529160200191610640565b820191906000526020600020905b81548152906001019060200180831161062357829003601f168201915b5050505050905090565b600061065582611105565b610694576040517f08c379a000000000000000000000000000000000000000000000000000000000815260040161068b90613293565b60405180910390fd5b6004600083815260200190815260200160002060009054906101000a900473ffffffffffffffffffffffffffffffffffffffff169050919050565b60006106da82610a93565b90508073ffffffffffffffffffffffffffffffffffffffff168373ffffffffffffffffffffffffffffffffffffffff16141561074b576040517f08c379a0000000000000000000000000000000000000000000000000000000008152600401610742906132f3565b60405180910390fd5b8073ffffffffffffffffffffffffffffffffffffffff1661076a611171565b73ffffffffffffffffffffffffffffffffffffffff161480610799575061079881610793611171565b610eff565b5b6107d8576040517f08c379a00000000000000000000000000000000000000000000000000000000081526004016107cf90613213565b60405180910390fd5b6107e28383611179565b505050565b600c600082815260200190815260200160002060000154341461083f576040517f08c379a0000000000000000000000000000000000000000000000000000000008152600401610836906131d3565b60405180910390fd5b6000600c60008381526020019081526020016000206001015414610898576040517f08c379a000000000000000000000000000000000000000000000000000000000815260040161088f906130b3565b60405180910390fd5b34600c600083815260200190815260200160002060010160008282546108be919061343b565b92505081905550505050565b6000600880549050905090565b6108e86108e2611171565b82611232565b610927576040517f08c379a000000000000000000000000000000000000000000000000000000000815260040161091e90613313565b60405180910390fd5b610932838383611310565b505050565b600061094283610b45565b8210610983576040517f08c379a000000000000000000000000000000000000000000000000000000000815260040161097a906130d3565b60405180910390fd5b600660008473ffffffffffffffffffffffffffffffffffffffff1673ffffffffffffffffffffffffffffffffffffffff168152602001908152602001600020600083815260200190815260200160002054905092915050565b6109f783838360405180602001604052806000815250610dde565b505050565b6000610a066108ca565b8210610a47576040517f08c379a0000000000000000000000000000000000000000000000000000000008152600401610a3e90613333565b60405180910390fd5b60088281548110610a81577f4e487b7100000000000000000000000000000000000000000000000000000000600052603260045260246000fd5b90600052602060002001549050919050565b6000806002600084815260200190815260200160002060009054906101000a900473ffffffffffffffffffffffffffffffffffffffff169050600073ffffffffffffffffffffffffffffffffffffffff168173ffffffffffffffffffffffffffffffffffffffff161415610b3c576040517f08c379a0000000000000000000000000000000000000000000000000000000008152600401610b3390613253565b60405180910390fd5b80915050919050565b60008073ffffffffffffffffffffffffffffffffffffffff168273ffffffffffffffffffffffffffffffffffffffff161415610bb6576040517f08c379a0000000000000000000000000000000000000000000000000000000008152600401610bad90613233565b60405180910390fd5b600360008373ffffffffffffffffffffffffffffffffffffffff1673ffffffffffffffffffffffffffffffffffffffff168152602001908152602001600020549050919050565b610c05611171565b73ffffffffffffffffffffffffffffffffffffffff16610c23610d0c565b73ffffffffffffffffffffffffffffffffffffffff1614610c79576040517f08c379a0000000000000000000000000000000000000000000000000000000008152600401610c70906132b3565b60405180910390fd5b610c836000611577565b565b600c6020528060005260406000206000915090508060000154908060010154905082565b6000610cb5600b61163d565b905081600c60008381526020019081526020016000206000018190555081600d6000610ce1600b61163d565b815260200190815260200160002081905550610cfd600b61164b565b610d078382611661565b505050565b6000600a60009054906101000a900473ffffffffffffffffffffffffffffffffffffffff16905090565b606060018054610d45906135ac565b80601f0160208091040260200160405190810160405280929190818152602001828054610d71906135ac565b8015610dbe5780601f10610d9357610100808354040283529160200191610dbe565b820191906000526020600020905b815481529060010190602001808311610da157829003601f168201915b5050505050905090565b610dda610dd3611171565b838361167f565b5050565b610def610de9611171565b83611232565b610e2e576040517f08c379a0000000000000000000000000000000000000000000000000000000008152600401610e2590613313565b60405180910390fd5b610e3a848484846117ec565b50505050565b6060610e4b82611105565b610e8a576040517f08c379a0000000000000000000000000000000000000000000000000000000008152600401610e81906132d3565b60405180910390fd5b6000610e94611848565b90506000815111610eb45760405180602001604052806000815250610edf565b80610ebe84611885565b604051602001610ecf929190612feb565b6040516020818303038152906040525b915050919050565b600d6020528060005260406000206000915090505481565b6000600560008473ffffffffffffffffffffffffffffffffffffffff1673ffffffffffffffffffffffffffffffffffffffff16815260200190815260200160002060008373ffffffffffffffffffffffffffffffffffffffff1673ffffffffffffffffffffffffffffffffffffffff16815260200190815260200160002060009054906101000a900460ff16905092915050565b610f9b611171565b73ffffffffffffffffffffffffffffffffffffffff16610fb9610d0c565b73ffffffffffffffffffffffffffffffffffffffff161461100f576040517f08c379a0000000000000000000000000000000000000000000000000000000008152600401611006906132b3565b60405180910390fd5b600073ffffffffffffffffffffffffffffffffffffffff168173ffffffffffffffffffffffffffffffffffffffff16141561107f576040517f08c379a000000000000000000000000000000000000000000000000000000000815260040161107690613133565b60405180910390fd5b61108881611577565b50565b60007f780e9d63000000000000000000000000000000000000000000000000000000007bffffffffffffffffffffffffffffffffffffffffffffffffffffffff1916827bffffffffffffffffffffffffffffffffffffffffffffffffffffffff191614806110fe57506110fd82611a32565b5b9050919050565b60008073ffffffffffffffffffffffffffffffffffffffff166002600084815260200190815260200160002060009054906101000a900473ffffffffffffffffffffffffffffffffffffffff1673ffffffffffffffffffffffffffffffffffffffff1614159050919050565b600033905090565b816004600083815260200190815260200160002060006101000a81548173ffffffffffffffffffffffffffffffffffffffff021916908373ffffffffffffffffffffffffffffffffffffffff160217905550808273ffffffffffffffffffffffffffffffffffffffff166111ec83610a93565b73ffffffffffffffffffffffffffffffffffffffff167f8c5be1e5ebec7d5bd14f71427d1e84f3dd0314c0f7b2291e5b200ac8c7c3b92560405160405180910390a45050565b600061123d82611105565b61127c576040517f08c379a0000000000000000000000000000000000000000000000000000000008152600401611273906131f3565b60405180910390fd5b600061128783610a93565b90508073ffffffffffffffffffffffffffffffffffffffff168473ffffffffffffffffffffffffffffffffffffffff1614806112c957506112c88185610eff565b5b8061130757508373ffffffffffffffffffffffffffffffffffffffff166112ef8461064a565b73ffffffffffffffffffffffffffffffffffffffff16145b91505092915050565b8273ffffffffffffffffffffffffffffffffffffffff1661133082610a93565b73ffffffffffffffffffffffffffffffffffffffff1614611386576040517f08c379a000000000000000000000000000000000000000000000000000000000815260040161137d90613153565b60405180910390fd5b600073ffffffffffffffffffffffffffffffffffffffff168273ffffffffffffffffffffffffffffffffffffffff1614156113f6576040517f08c379a00000000000000000000000000000000000000000000000000000000081526004016113ed90613193565b60405180910390fd5b611401838383611b14565b61140c600082611179565b6001600360008573ffffffffffffffffffffffffffffffffffffffff1673ffffffffffffffffffffffffffffffffffffffff168152602001908152602001600020600082825461145c91906134c2565b925050819055506001600360008473ffffffffffffffffffffffffffffffffffffffff1673ffffffffffffffffffffffffffffffffffffffff16815260200190815260200160002060008282546114b3919061343b565b92505081905550816002600083815260200190815260200160002060006101000a81548173ffffffffffffffffffffffffffffffffffffffff021916908373ffffffffffffffffffffffffffffffffffffffff160217905550808273ffffffffffffffffffffffffffffffffffffffff168473ffffffffffffffffffffffffffffffffffffffff167fddf252ad1be2c89b69c2b068fc378daa952ba7f163c4a11628f55a4df523b3ef60405160405180910390a4611572838383611ba3565b505050565b6000600a60009054906101000a900473ffffffffffffffffffffffffffffffffffffffff16905081600a60006101000a81548173ffffffffffffffffffffffffffffffffffffffff021916908373ffffffffffffffffffffffffffffffffffffffff1602179055508173ffffffffffffffffffffffffffffffffffffffff168173ffffffffffffffffffffffffffffffffffffffff167f8be0079c531659141344cd1fd0a4f28419497f9722a3daafe3b4186f6b6457e060405160405180910390a35050565b600081600001549050919050565b6001816000016000828254019250508190555050565b61167b828260405180602001604052806000815250611ba8565b5050565b8173ffffffffffffffffffffffffffffffffffffffff168373ffffffffffffffffffffffffffffffffffffffff1614156116ee576040517f08c379a00000000000000000000000000000000000000000000000000000000081526004016116e5906131b3565b60405180910390fd5b80600560008573ffffffffffffffffffffffffffffffffffffffff1673ffffffffffffffffffffffffffffffffffffffff16815260200190815260200160002060008473ffffffffffffffffffffffffffffffffffffffff1673ffffffffffffffffffffffffffffffffffffffff16815260200190815260200160002060006101000a81548160ff0219169083151502179055508173ffffffffffffffffffffffffffffffffffffffff168373ffffffffffffffffffffffffffffffffffffffff167f17307eab39ab6107e8899845ad3d59bd9653f200f220920489ca2b5937696c31836040516117df9190613076565b60405180910390a3505050565b6117f7848484611310565b61180384848484611c03565b611842576040517f08c379a0000000000000000000000000000000000000000000000000000000008152600401611839906130f3565b60405180910390fd5b50505050565b60606040518060400160405280601f81526020017f68747470733a2f2f506c6f74732e73656c6c6275792f6d657461646174612f00815250905090565b606060008214156118cd576040518060400160405280600181526020017f30000000000000000000000000000000000000000000000000000000000000008152509050611a2d565b600082905060005b600082146118ff5780806118e8906135de565b915050600a826118f89190613491565b91506118d5565b60008167ffffffffffffffff811115611941577f4e487b7100000000000000000000000000000000000000000000000000000000600052604160045260246000fd5b6040519080825280601f01601f1916602001820160405280156119735781602001600182028036833780820191505090505b5090505b60008514611a265760018261198c91906134c2565b9150600a8561199b9190613627565b60306119a7919061343b565b60f81b8183815181106119e3577f4e487b7100000000000000000000000000000000000000000000000000000000600052603260045260246000fd5b60200101907effffffffffffffffffffffffffffffffffffffffffffffffffffffffffffff1916908160001a905350600a85611a1f9190613491565b9450611977565b8093505050505b919050565b60007f80ac58cd000000000000000000000000000000000000000000000000000000007bffffffffffffffffffffffffffffffffffffffffffffffffffffffff1916827bffffffffffffffffffffffffffffffffffffffffffffffffffffffff19161480611afd57507f5b5e139f000000000000000000000000000000000000000000000000000000007bffffffffffffffffffffffffffffffffffffffffffffffffffffffff1916827bffffffffffffffffffffffffffffffffffffffffffffffffffffffff1916145b80611b0d5750611b0c82611d9a565b5b9050919050565b611b1d81611105565b1580611b545750600c600082815260200190815260200160002060000154600c600083815260200190815260200160002060010154145b611b93576040517f08c379a0000000000000000000000000000000000000000000000000000000008152600401611b8a90613113565b60405180910390fd5b611b9e838383611e04565b505050565b505050565b611bb28383611f18565b611bbf6000848484611c03565b611bfe576040517f08c379a0000000000000000000000000000000000000000000000000000000008152600401611bf5906130f3565b60405180910390fd5b505050565b6000611c248473ffffffffffffffffffffffffffffffffffffffff166120f2565b15611d8d578373ffffffffffffffffffffffffffffffffffffffff1663150b7a02611c4d611171565b8786866040518563ffffffff1660e01b8152600401611c6f949392919061302a565b602060405180830381600087803b158015611c8957600080fd5b505af1925050508015611cba57506040513d601f19601f82011682018060405250810190611cb7919061274f565b60015b611d3d573d8060008114611cea576040519150601f19603f3d011682016040523d82523d6000602084013e611cef565b606091505b50600081511415611d35576040517f08c379a0000000000000000000000000000000000000000000000000000000008152600401611d2c906130f3565b60405180910390fd5b805181602001fd5b63150b7a0260e01b7bffffffffffffffffffffffffffffffffffffffffffffffffffffffff1916817bffffffffffffffffffffffffffffffffffffffffffffffffffffffff191614915050611d92565b600190505b949350505050565b60007f01ffc9a7000000000000000000000000000000000000000000000000000000007bffffffffffffffffffffffffffffffffffffffffffffffffffffffff1916827bffffffffffffffffffffffffffffffffffffffffffffffffffffffff1916149050919050565b611e0f838383612131565b600073ffffffffffffffffffffffffffffffffffffffff168373ffffffffffffffffffffffffffffffffffffffff161415611e5257611e4d81612136565b611e91565b8173ffffffffffffffffffffffffffffffffffffffff168373ffffffffffffffffffffffffffffffffffffffff1614611e9057611e8f838261217f565b5b5b600073ffffffffffffffffffffffffffffffffffffffff168273ffffffffffffffffffffffffffffffffffffffff161415611ed457611ecf816122ec565b611f13565b8273ffffffffffffffffffffffffffffffffffffffff168273ffffffffffffffffffffffffffffffffffffffff1614611f1257611f11828261242f565b5b5b505050565b600073ffffffffffffffffffffffffffffffffffffffff168273ffffffffffffffffffffffffffffffffffffffff161415611f88576040517f08c379a0000000000000000000000000000000000000000000000000000000008152600401611f7f90613273565b60405180910390fd5b611f9181611105565b15611fd1576040517f08c379a0000000000000000000000000000000000000000000000000000000008152600401611fc890613173565b60405180910390fd5b611fdd60008383611b14565b6001600360008473ffffffffffffffffffffffffffffffffffffffff1673ffffffffffffffffffffffffffffffffffffffff168152602001908152602001600020600082825461202d919061343b565b92505081905550816002600083815260200190815260200160002060006101000a81548173ffffffffffffffffffffffffffffffffffffffff021916908373ffffffffffffffffffffffffffffffffffffffff160217905550808273ffffffffffffffffffffffffffffffffffffffff16600073ffffffffffffffffffffffffffffffffffffffff167fddf252ad1be2c89b69c2b068fc378daa952ba7f163c4a11628f55a4df523b3ef60405160405180910390a46120ee60008383611ba3565b5050565b6000808273ffffffffffffffffffffffffffffffffffffffff16803b806020016040519081016040528181526000908060200190933c51119050919050565b505050565b6008805490506009600083815260200190815260200160002081905550600881908060018154018082558091505060019003906000526020600020016000909190919091505550565b6000600161218c84610b45565b61219691906134c2565b905060006007600084815260200190815260200160002054905081811461227b576000600660008673ffffffffffffffffffffffffffffffffffffffff1673ffffffffffffffffffffffffffffffffffffffff168152602001908152602001600020600084815260200190815260200160002054905080600660008773ffffffffffffffffffffffffffffffffffffffff1673ffffffffffffffffffffffffffffffffffffffff168152602001908152602001600020600084815260200190815260200160002081905550816007600083815260200190815260200160002081905550505b6007600084815260200190815260200160002060009055600660008573ffffffffffffffffffffffffffffffffffffffff1673ffffffffffffffffffffffffffffffffffffffff16815260200190815260200160002060008381526020019081526020016000206000905550505050565b6000600160088054905061230091906134c2565b9050600060096000848152602001908152602001600020549050600060088381548110612356577f4e487b7100000000000000000000000000000000000000000000000000000000600052603260045260246000fd5b90600052602060002001549050806008838154811061239e577f4e487b7100000000000000000000000000000000000000000000000000000000600052603260045260246000fd5b906000526020600020018190555081600960008381526020019081526020016000208190555060096000858152602001908152602001600020600090556008805480612413577f4e487b7100000000000000000000000000000000000000000000000000000000600052603160045260246000fd5b6001900381819060005260206000200160009055905550505050565b600061243a83610b45565b905081600660008573ffffffffffffffffffffffffffffffffffffffff1673ffffffffffffffffffffffffffffffffffffffff168152602001908152602001600020600083815260200190815260200160002081905550806007600084815260200190815260200160002081905550505050565b60006124c16124bc846133c8565b613397565b9050828152602081018484840111156124d957600080fd5b6124e484828561356a565b509392505050565b6000813590506124fb81613725565b92915050565b6000813590506125108161373c565b92915050565b60008135905061252581613753565b92915050565b60008151905061253a81613753565b92915050565b600082601f83011261255157600080fd5b81356125618482602086016124ae565b91505092915050565b6000813590506125798161376a565b92915050565b60006020828403121561259157600080fd5b600061259f848285016124ec565b91505092915050565b600080604083850312156125bb57600080fd5b60006125c9858286016124ec565b92505060206125da858286016124ec565b9150509250929050565b6000806000606084860312156125f957600080fd5b6000612607868287016124ec565b9350506020612618868287016124ec565b92505060406126298682870161256a565b9150509250925092565b6000806000806080858703121561264957600080fd5b6000612657878288016124ec565b9450506020612668878288016124ec565b93505060406126798782880161256a565b925050606085013567ffffffffffffffff81111561269657600080fd5b6126a287828801612540565b91505092959194509250565b600080604083850312156126c157600080fd5b60006126cf858286016124ec565b92505060206126e085828601612501565b9150509250929050565b600080604083850312156126fd57600080fd5b600061270b858286016124ec565b925050602061271c8582860161256a565b9150509250929050565b60006020828403121561273857600080fd5b600061274684828501612516565b91505092915050565b60006020828403121561276157600080fd5b600061276f8482850161252b565b91505092915050565b60006020828403121561278a57600080fd5b60006127988482850161256a565b91505092915050565b6127aa816134f6565b82525050565b6127b981613508565b82525050565b60006127ca826133f8565b6127d4818561340e565b93506127e4818560208601613579565b6127ed81613714565b840191505092915050565b600061280382613403565b61280d818561341f565b935061281d818560208601613579565b61282681613714565b840191505092915050565b600061283c82613403565b6128468185613430565b9350612856818560208601613579565b80840191505092915050565b600061286f60158361341f565b91507f4974656d20697320616c726561647920706169642100000000000000000000006000830152602082019050919050565b60006128af602b8361341f565b91507f455243373231456e756d657261626c653a206f776e657220696e646578206f7560008301527f74206f6620626f756e64730000000000000000000000000000000000000000006020830152604082019050919050565b600061291560328361341f565b91507f4552433732313a207472616e7366657220746f206e6f6e20455243373231526560008301527f63656976657220696d706c656d656e74657200000000000000000000000000006020830152604082019050919050565b600061297b60108361341f565b91507f546f6b656e206e6f7420626f75676874000000000000000000000000000000006000830152602082019050919050565b60006129bb60268361341f565b91507f4f776e61626c653a206e6577206f776e657220697320746865207a65726f206160008301527f64647265737300000000000000000000000000000000000000000000000000006020830152604082019050919050565b6000612a2160258361341f565b91507f4552433732313a207472616e736665722066726f6d20696e636f72726563742060008301527f6f776e65720000000000000000000000000000000000000000000000000000006020830152604082019050919050565b6000612a87601c8361341f565b91507f4552433732313a20746f6b656e20616c7265616479206d696e746564000000006000830152602082019050919050565b6000612ac760248361341f565b91507f4552433732313a207472616e7366657220746f20746865207a65726f2061646460008301527f72657373000000000000000000000000000000000000000000000000000000006020830152604082019050919050565b6000612b2d60198361341f565b91507f4552433732313a20617070726f766520746f2063616c6c6572000000000000006000830152602082019050919050565b6000612b6d60218361341f565b91507f576520646f6e277420737570706f7274207061727469616c207061796d656e7460008301527f73000000000000000000000000000000000000000000000000000000000000006020830152604082019050919050565b6000612bd3602c8361341f565b91507f4552433732313a206f70657261746f7220717565727920666f72206e6f6e657860008301527f697374656e7420746f6b656e00000000000000000000000000000000000000006020830152604082019050919050565b6000612c3960388361341f565b91507f4552433732313a20617070726f76652063616c6c6572206973206e6f74206f7760008301527f6e6572206e6f7220617070726f76656420666f7220616c6c00000000000000006020830152604082019050919050565b6000612c9f602a8361341f565b91507f4552433732313a2062616c616e636520717565727920666f7220746865207a6560008301527f726f2061646472657373000000000000000000000000000000000000000000006020830152604082019050919050565b6000612d0560298361341f565b91507f4552433732313a206f776e657220717565727920666f72206e6f6e657869737460008301527f656e7420746f6b656e00000000000000000000000000000000000000000000006020830152604082019050919050565b6000612d6b60208361341f565b91507f4552433732313a206d696e7420746f20746865207a65726f20616464726573736000830152602082019050919050565b6000612dab602c8361341f565b91507f4552433732313a20617070726f76656420717565727920666f72206e6f6e657860008301527f697374656e7420746f6b656e00000000000000000000000000000000000000006020830152604082019050919050565b6000612e1160208361341f565b91507f4f776e61626c653a2063616c6c6572206973206e6f7420746865206f776e65726000830152602082019050919050565b6000612e51602f8361341f565b91507f4552433732314d657461646174613a2055524920717565727920666f72206e6f60008301527f6e6578697374656e7420746f6b656e00000000000000000000000000000000006020830152604082019050919050565b6000612eb760218361341f565b91507f4552433732313a20617070726f76616c20746f2063757272656e74206f776e6560008301527f72000000000000000000000000000000000000000000000000000000000000006020830152604082019050919050565b6000612f1d60318361341f565b91507f4552433732313a207472616e736665722063616c6c6572206973206e6f74206f60008301527f776e6572206e6f7220617070726f7665640000000000000000000000000000006020830152604082019050919050565b6000612f83602c8361341f565b91507f455243373231456e756d657261626c653a20676c6f62616c20696e646578206f60008301527f7574206f6620626f756e647300000000000000000000000000000000000000006020830152604082019050919050565b612fe581613560565b82525050565b6000612ff78285612831565b91506130038284612831565b91508190509392505050565b600060208201905061302460008301846127a1565b92915050565b600060808201905061303f60008301876127a1565b61304c60208301866127a1565b6130596040830185612fdc565b818103606083015261306b81846127bf565b905095945050505050565b600060208201905061308b60008301846127b0565b92915050565b600060208201905081810360008301526130ab81846127f8565b905092915050565b600060208201905081810360008301526130cc81612862565b9050919050565b600060208201905081810360008301526130ec816128a2565b9050919050565b6000602082019050818103600083015261310c81612908565b9050919050565b6000602082019050818103600083015261312c8161296e565b9050919050565b6000602082019050818103600083015261314c816129ae565b9050919050565b6000602082019050818103600083015261316c81612a14565b9050919050565b6000602082019050818103600083015261318c81612a7a565b9050919050565b600060208201905081810360008301526131ac81612aba565b9050919050565b600060208201905081810360008301526131cc81612b20565b9050919050565b600060208201905081810360008301526131ec81612b60565b9050919050565b6000602082019050818103600083015261320c81612bc6565b9050919050565b6000602082019050818103600083015261322c81612c2c565b9050919050565b6000602082019050818103600083015261324c81612c92565b9050919050565b6000602082019050818103600083015261326c81612cf8565b9050919050565b6000602082019050818103600083015261328c81612d5e565b9050919050565b600060208201905081810360008301526132ac81612d9e565b9050919050565b600060208201905081810360008301526132cc81612e04565b9050919050565b600060208201905081810360008301526132ec81612e44565b9050919050565b6000602082019050818103600083015261330c81612eaa565b9050919050565b6000602082019050818103600083015261332c81612f10565b9050919050565b6000602082019050818103600083015261334c81612f76565b9050919050565b60006020820190506133686000830184612fdc565b92915050565b60006040820190506133836000830185612fdc565b6133906020830184612fdc565b9392505050565b6000604051905081810181811067ffffffffffffffff821117156133be576133bd6136e5565b5b8060405250919050565b600067ffffffffffffffff8211156133e3576133e26136e5565b5b601f19601f8301169050602081019050919050565b600081519050919050565b600081519050919050565b600082825260208201905092915050565b600082825260208201905092915050565b600081905092915050565b600061344682613560565b915061345183613560565b9250827fffffffffffffffffffffffffffffffffffffffffffffffffffffffffffffffff0382111561348657613485613658565b5b828201905092915050565b600061349c82613560565b91506134a783613560565b9250826134b7576134b6613687565b5b828204905092915050565b60006134cd82613560565b91506134d883613560565b9250828210156134eb576134ea613658565b5b828203905092915050565b600061350182613540565b9050919050565b60008115159050919050565b60007fffffffff0000000000000000000000000000000000000000000000000000000082169050919050565b600073ffffffffffffffffffffffffffffffffffffffff82169050919050565b6000819050919050565b82818337600083830152505050565b60005b8381101561359757808201518184015260208101905061357c565b838111156135a6576000848401525b50505050565b600060028204905060018216806135c457607f821691505b602082108114156135d8576135d76136b6565b5b50919050565b60006135e982613560565b91507fffffffffffffffffffffffffffffffffffffffffffffffffffffffffffffffff82141561361c5761361b613658565b5b600182019050919050565b600061363282613560565b915061363d83613560565b92508261364d5761364c613687565b5b828206905092915050565b7f4e487b7100000000000000000000000000000000000000000000000000000000600052601160045260246000fd5b7f4e487b7100000000000000000000000000000000000000000000000000000000600052601260045260246000fd5b7f4e487b7100000000000000000000000000000000000000000000000000000000600052602260045260246000fd5b7f4e487b7100000000000000000000000000000000000000000000000000000000600052604160045260246000fd5b6000601f19601f8301169050919050565b61372e816134f6565b811461373957600080fd5b50565b61374581613508565b811461375057600080fd5b50565b61375c81613514565b811461376757600080fd5b50565b61377381613560565b811461377e57600080fd5b5056fea264697066735822122084bc77529112d969c17c53dce0cb46b187a32e82e3d61774ad434e65b6e6568164736f6c63430008000033",
  "immutableReferences": {},
  "source": "// SPDX-License-Identifier: MIT\npragma solidity ^0.8.0;\n\nimport \"@openzeppelin/contracts/token/ERC721/ERC721.sol\";\nimport \"@openzeppelin/contracts/token/ERC721/extensions/ERC721Enumerable.sol\";\nimport \"@openzeppelin/contracts/access/Ownable.sol\";\nimport \"@openzeppelin/contracts/utils/Counters.sol\";\nimport \"@openzeppelin/contracts/token/ERC721/presets/ERC721PresetMinterPauserAutoId.sol\";\n\ncontract PlotToken is ERC721, ERC721Enumerable, Ownable {\n\n    using Counters for Counters.Counter;\n    Counters.Counter private _tokenIdCounter;\n \n    struct Plot {\n        uint priceInWei;\n        uint paidWei;\n    }\n\n    mapping (uint => Plot) public mapingPrice;\n    mapping (uint => uint) public tokenPrice;\n\n    constructor() ERC721(\"PlotToken\", \"PLO\") \n    {}\n\n    function _baseURI() internal pure override returns (string memory) {\n        return \"https://Plots.sellbuy/metadata/\";\n    }\n\n    \n    function _beforeTokenTransfer(address from, address to, uint _tokenId) internal override(ERC721, ERC721Enumerable) {\n        require(! _exists(_tokenId) || mapingPrice[_tokenId].paidWei == mapingPrice[_tokenId].priceInWei ,\"Token not bought\");\n        super._beforeTokenTransfer(from, to, _tokenId);\n    }\n\n    function buyPlotToken(address fromBuyer, address toSeller, uint _tokenId) public payable {\n        \n        require(msg.value == mapingPrice[_tokenId].priceInWei, \"We don't support partial payments\");\n        require(mapingPrice[_tokenId].paidWei == 0, \"Item is already paid!\");\n        mapingPrice[_tokenId].paidWei += msg.value;\n\n    }\n\n    function mintPlotToken(address to, uint _priceInWei) public {\n        uint _tokenId = _tokenIdCounter.current();\n        mapingPrice[_tokenId].priceInWei = _priceInWei;\n        tokenPrice[_tokenIdCounter.current()] = _priceInWei;\n        _tokenIdCounter.increment();\n        super._safeMint(to, _tokenId);\n    }\n\n    \n\n    function supportsInterface(bytes4 interfaceId) public view override(ERC721, ERC721Enumerable) returns (bool)\n    {\n        return super.supportsInterface(interfaceId);\n    }\n}",
  "sourcePath": "/Users/srishtitiwari/PROJECT_PLOT_SRISHTI/contracts/PlotToken.sol",
  "compiler": {
    "name": "solc",
    "version": "0.8.0+commit.c7dfd78e.Emscripten.clang"
  },
  "schemaVersion": "3.4.6",
  "updatedAt": "2022-05-21T14:21:05.720Z",
  "networkType": "ethereum",
  "devdoc": {
    "kind": "dev",
    "methods": {
      "approve(address,uint256)": {
        "details": "See {IERC721-approve}."
      },
      "balanceOf(address)": {
        "details": "See {IERC721-balanceOf}."
      },
      "getApproved(uint256)": {
        "details": "See {IERC721-getApproved}."
      },
      "isApprovedForAll(address,address)": {
        "details": "See {IERC721-isApprovedForAll}."
      },
      "name()": {
        "details": "See {IERC721Metadata-name}."
      },
      "owner()": {
        "details": "Returns the address of the current owner."
      },
      "ownerOf(uint256)": {
        "details": "See {IERC721-ownerOf}."
      },
      "renounceOwnership()": {
        "details": "Leaves the contract without owner. It will not be possible to call `onlyOwner` functions anymore. Can only be called by the current owner. NOTE: Renouncing ownership will leave the contract without an owner, thereby removing any functionality that is only available to the owner."
      },
      "safeTransferFrom(address,address,uint256)": {
        "details": "See {IERC721-safeTransferFrom}."
      },
      "safeTransferFrom(address,address,uint256,bytes)": {
        "details": "See {IERC721-safeTransferFrom}."
      },
      "setApprovalForAll(address,bool)": {
        "details": "See {IERC721-setApprovalForAll}."
      },
      "symbol()": {
        "details": "See {IERC721Metadata-symbol}."
      },
      "tokenByIndex(uint256)": {
        "details": "See {IERC721Enumerable-tokenByIndex}."
      },
      "tokenOfOwnerByIndex(address,uint256)": {
        "details": "See {IERC721Enumerable-tokenOfOwnerByIndex}."
      },
      "tokenURI(uint256)": {
        "details": "See {IERC721Metadata-tokenURI}."
      },
      "totalSupply()": {
        "details": "See {IERC721Enumerable-totalSupply}."
      },
      "transferFrom(address,address,uint256)": {
        "details": "See {IERC721-transferFrom}."
      },
      "transferOwnership(address)": {
        "details": "Transfers ownership of the contract to a new account (`newOwner`). Can only be called by the current owner."
      }
    },
    "version": 1
  },
  "userdoc": {
    "kind": "user",
    "methods": {},
    "version": 1
  }
}